{
  "_format": "hh-sol-artifact-1",
  "contractName": "Lock",
  "sourceName": "contracts/Lock.sol",
  "abi": [
    {
      "inputs": [
        {
          "internalType": "string",
          "name": "_name",
          "type": "string"
        },
        {
          "internalType": "uint256",
          "name": "_age",
          "type": "uint256"
        },
        {
          "internalType": "uint256",
          "name": "_amount",
          "type": "uint256"
        }
      ],
      "name": "addpeople",
      "outputs": [],
      "stateMutability": "payable",
      "type": "function"
    },
    {
      "inputs": [
        {
          "internalType": "string",
          "name": "_name",
          "type": "string"
        }
      ],
      "name": "changeName",
      "outputs": [],
      "stateMutability": "nonpayable",
      "type": "function"
    },
    {
      "inputs": [
        {
          "internalType": "string",
          "name": "accountName",
          "type": "string"
        },
        {
          "internalType": "string",
          "name": "_name",
          "type": "string"
        },
        {
          "internalType": "uint256",
          "name": "_age",
          "type": "uint256"
        },
        {
          "internalType": "uint256",
          "name": "_accountbalance",
          "type": "uint256"
        }
      ],
      "name": "changePeople",
      "outputs": [],
      "stateMutability": "nonpayable",
      "type": "function"
    },
    {
      "inputs": [
        {
          "internalType": "address",
          "name": "accountaddress",
          "type": "address"
        }
      ],
      "name": "checkBalance",
      "outputs": [
        {
          "internalType": "uint256",
          "name": "",
          "type": "uint256"
        }
      ],
      "stateMutability": "view",
      "type": "function"
    },
    {
      "inputs": [
        {
          "internalType": "address",
          "name": "",
          "type": "address"
        }
      ],
      "name": "mappeople",
      "outputs": [
        {
          "internalType": "string",
          "name": "myname",
          "type": "string"
        },
        {
          "internalType": "uint256",
          "name": "age",
          "type": "uint256"
        },
        {
          "internalType": "bool",
          "name": "student",
          "type": "bool"
        },
        {
          "internalType": "address",
          "name": "accountaddress",
          "type": "address"
        },
        {
          "internalType": "uint256",
          "name": "accountbalance",
          "type": "uint256"
        }
      ],
      "stateMutability": "view",
      "type": "function"
    },
    {
      "inputs": [],
      "name": "name",
      "outputs": [
        {
          "internalType": "string",
          "name": "",
          "type": "string"
        }
      ],
      "stateMutability": "view",
      "type": "function"
    },
    {
      "inputs": [
        {
          "internalType": "uint256",
          "name": "",
          "type": "uint256"
        }
      ],
      "name": "people",
      "outputs": [
        {
          "internalType": "string",
          "name": "myname",
          "type": "string"
        },
        {
          "internalType": "uint256",
          "name": "age",
          "type": "uint256"
        },
        {
          "internalType": "bool",
          "name": "student",
          "type": "bool"
        },
        {
          "internalType": "address",
          "name": "accountaddress",
          "type": "address"
        },
        {
          "internalType": "uint256",
          "name": "accountbalance",
          "type": "uint256"
        }
      ],
      "stateMutability": "view",
      "type": "function"
    },
    {
      "inputs": [
        {
          "internalType": "string",
          "name": "accountName",
          "type": "string"
        }
      ],
      "name": "showdetails",
      "outputs": [
        {
          "internalType": "string",
          "name": "",
          "type": "string"
        },
        {
          "internalType": "uint256",
          "name": "",
          "type": "uint256"
        },
        {
          "internalType": "bool",
          "name": "",
          "type": "bool"
        },
        {
          "internalType": "address",
          "name": "",
          "type": "address"
        },
        {
          "internalType": "uint256",
          "name": "",
          "type": "uint256"
        }
      ],
      "stateMutability": "view",
      "type": "function"
    },
    {
      "inputs": [
        {
          "internalType": "address",
          "name": "sender",
          "type": "address"
        }
      ],
      "name": "transferether",
      "outputs": [],
      "stateMutability": "payable",
      "type": "function"
    }
  ],
  "bytecode": "0x60806040526040518060400160405280601381526020017f52616973756c2049736c616d20526f6e6e696500000000000000000000000000815250600090816200004a9190620002d9565b503480156200005857600080fd5b50620003c0565b600081519050919050565b7f4e487b7100000000000000000000000000000000000000000000000000000000600052604160045260246000fd5b7f4e487b7100000000000000000000000000000000000000000000000000000000600052602260045260246000fd5b60006002820490506001821680620000e157607f821691505b602082108103620000f757620000f662000099565b5b50919050565b60008190508160005260206000209050919050565b60006020601f8301049050919050565b600082821b905092915050565b600060088302620001617fffffffffffffffffffffffffffffffffffffffffffffffffffffffffffffffff8262000122565b6200016d868362000122565b95508019841693508086168417925050509392505050565b6000819050919050565b6000819050919050565b6000620001ba620001b4620001ae8462000185565b6200018f565b62000185565b9050919050565b6000819050919050565b620001d68362000199565b620001ee620001e582620001c1565b8484546200012f565b825550505050565b600090565b62000205620001f6565b62000212818484620001cb565b505050565b5b818110156200023a576200022e600082620001fb565b60018101905062000218565b5050565b601f82111562000289576200025381620000fd565b6200025e8462000112565b810160208510156200026e578190505b620002866200027d8562000112565b83018262000217565b50505b505050565b600082821c905092915050565b6000620002ae600019846008026200028e565b1980831691505092915050565b6000620002c983836200029b565b9150826002028217905092915050565b620002e4826200005f565b67ffffffffffffffff8111156200030057620002ff6200006a565b5b6200030c8254620000c8565b620003198282856200023e565b600060209050601f8311600181146200035157600084156200033c578287015190505b620003488582620002bb565b865550620003b8565b601f1984166200036186620000fd565b60005b828110156200038b5784890151825560018201915060208501945060208101905062000364565b86831015620003ab5784890151620003a7601f8916826200029b565b8355505b6001600288020188555050505b505050505050565b61136880620003d06000396000f3fe6080604052600436106100865760003560e01c80635f515226116100595780635f5152261461013c5780639e7a13ad14610179578063cbe3cd86146101ba578063cc9aec88146101fb578063ecacabed1461021757610086565b806306fdde031461008b578063236299b8146100b65780635353a2d8146100f75780635d9e4cd114610120575b600080fd5b34801561009757600080fd5b506100a0610240565b6040516100ad91906109ad565b60405180910390f35b3480156100c257600080fd5b506100dd60048036038101906100d89190610a41565b6102ce565b6040516100ee959493929190610ab1565b60405180910390f35b34801561010357600080fd5b5061011e60048036038101906101199190610c40565b6103b9565b005b61013a60048036038101906101359190610cb5565b6103cc565b005b34801561014857600080fd5b50610163600480360381019061015e9190610a41565b6104e5565b6040516101709190610d24565b60405180910390f35b34801561018557600080fd5b506101a0600480360381019061019b9190610d3f565b610506565b6040516101b1959493929190610ab1565b60405180910390f35b3480156101c657600080fd5b506101e160048036038101906101dc9190610c40565b610601565b6040516101f2959493929190610ab1565b60405180910390f35b61021560048036038101906102109190610a41565b610786565b005b34801561022357600080fd5b5061023e60048036038101906102399190610d6c565b610836565b005b6000805461024d90610e3a565b80601f016020809104026020016040519081016040528092919081815260200182805461027990610e3a565b80156102c65780601f1061029b576101008083540402835291602001916102c6565b820191906000526020600020905b8154815290600101906020018083116102a957829003601f168201915b505050505081565b60026020528060005260406000206000915090508060000180546102f190610e3a565b80601f016020809104026020016040519081016040528092919081815260200182805461031d90610e3a565b801561036a5780601f1061033f5761010080835404028352916020019161036a565b820191906000526020600020905b81548152906001019060200180831161034d57829003601f168201915b5050505050908060010154908060020160009054906101000a900460ff16908060020160019054906101000a900473ffffffffffffffffffffffffffffffffffffffff16908060030154905085565b80600090816103c89190611017565b5050565b670de0b6b3a7640000816103e09190611118565b905060016040518060a001604052808581526020018481526020016001151581526020013073ffffffffffffffffffffffffffffffffffffffff16815260200183815250908060018154018082558091505060019003906000526020600020906004020160009091909190915060008201518160000190816104629190611017565b506020820151816001015560408201518160020160006101000a81548160ff02191690831515021790555060608201518160020160016101000a81548173ffffffffffffffffffffffffffffffffffffffff021916908373ffffffffffffffffffffffffffffffffffffffff160217905550608082015181600301555050505050565b60008173ffffffffffffffffffffffffffffffffffffffff16319050919050565b6001818154811061051657600080fd5b906000526020600020906004020160009150905080600001805461053990610e3a565b80601f016020809104026020016040519081016040528092919081815260200182805461056590610e3a565b80156105b25780601f10610587576101008083540402835291602001916105b2565b820191906000526020600020905b81548152906001019060200180831161059557829003601f168201915b5050505050908060010154908060020160009054906101000a900460ff16908060020160019054906101000a900473ffffffffffffffffffffffffffffffffffffffff16908060030154905085565b606060008060008060006001610616886108ac565b815481106106275761062661115a565b5b90600052602060002090600402016040518060a001604052908160008201805461065090610e3a565b80601f016020809104026020016040519081016040528092919081815260200182805461067c90610e3a565b80156106c95780601f1061069e576101008083540402835291602001916106c9565b820191906000526020600020905b8154815290600101906020018083116106ac57829003601f168201915b50505050508152602001600182015481526020016002820160009054906101000a900460ff161515151581526020016002820160019054906101000a900473ffffffffffffffffffffffffffffffffffffffff1673ffffffffffffffffffffffffffffffffffffffff1673ffffffffffffffffffffffffffffffffffffffff168152602001600382015481525050905080600001518160200151826040015183606001518460800151955095509550955095505091939590929450565b60008173ffffffffffffffffffffffffffffffffffffffff16346040516107ac906111ba565b60006040518083038185875af1925050503d80600081146107e9576040519150601f19603f3d011682016040523d82523d6000602084013e6107ee565b606091505b5050905080610832576040517f08c379a00000000000000000000000000000000000000000000000000000000081526004016108299061121b565b60405180910390fd5b5050565b60006001610843866108ac565b815481106108545761085361115a565b5b90600052602060002090600402019050838160000190816108759190611017565b5060008160020160006101000a81548160ff0219169083151502179055508281600101819055508181600301819055505050505050565b60005b600180549050811015610917578180519060200120600182815481106108d8576108d761115a565b5b90600052602060002090600402016000016040516108f691906112d3565b6040518091039020031561091857808061090f906112ea565b9150506108af565b5b919050565b600081519050919050565b600082825260208201905092915050565b60005b8381101561095757808201518184015260208101905061093c565b60008484015250505050565b6000601f19601f8301169050919050565b600061097f8261091d565b6109898185610928565b9350610999818560208601610939565b6109a281610963565b840191505092915050565b600060208201905081810360008301526109c78184610974565b905092915050565b6000604051905090565b600080fd5b600080fd5b600073ffffffffffffffffffffffffffffffffffffffff82169050919050565b6000610a0e826109e3565b9050919050565b610a1e81610a03565b8114610a2957600080fd5b50565b600081359050610a3b81610a15565b92915050565b600060208284031215610a5757610a566109d9565b5b6000610a6584828501610a2c565b91505092915050565b6000819050919050565b610a8181610a6e565b82525050565b60008115159050919050565b610a9c81610a87565b82525050565b610aab81610a03565b82525050565b600060a0820190508181036000830152610acb8188610974565b9050610ada6020830187610a78565b610ae76040830186610a93565b610af46060830185610aa2565b610b016080830184610a78565b9695505050505050565b600080fd5b600080fd5b7f4e487b7100000000000000000000000000000000000000000000000000000000600052604160045260246000fd5b610b4d82610963565b810181811067ffffffffffffffff82111715610b6c57610b6b610b15565b5b80604052505050565b6000610b7f6109cf565b9050610b8b8282610b44565b919050565b600067ffffffffffffffff821115610bab57610baa610b15565b5b610bb482610963565b9050602081019050919050565b82818337600083830152505050565b6000610be3610bde84610b90565b610b75565b905082815260208101848484011115610bff57610bfe610b10565b5b610c0a848285610bc1565b509392505050565b600082601f830112610c2757610c26610b0b565b5b8135610c37848260208601610bd0565b91505092915050565b600060208284031215610c5657610c556109d9565b5b600082013567ffffffffffffffff811115610c7457610c736109de565b5b610c8084828501610c12565b91505092915050565b610c9281610a6e565b8114610c9d57600080fd5b50565b600081359050610caf81610c89565b92915050565b600080600060608486031215610cce57610ccd6109d9565b5b600084013567ffffffffffffffff811115610cec57610ceb6109de565b5b610cf886828701610c12565b9350506020610d0986828701610ca0565b9250506040610d1a86828701610ca0565b9150509250925092565b6000602082019050610d396000830184610a78565b92915050565b600060208284031215610d5557610d546109d9565b5b6000610d6384828501610ca0565b91505092915050565b60008060008060808587031215610d8657610d856109d9565b5b600085013567ffffffffffffffff811115610da457610da36109de565b5b610db087828801610c12565b945050602085013567ffffffffffffffff811115610dd157610dd06109de565b5b610ddd87828801610c12565b9350506040610dee87828801610ca0565b9250506060610dff87828801610ca0565b91505092959194509250565b7f4e487b7100000000000000000000000000000000000000000000000000000000600052602260045260246000fd5b60006002820490506001821680610e5257607f821691505b602082108103610e6557610e64610e0b565b5b50919050565b60008190508160005260206000209050919050565b60006020601f8301049050919050565b600082821b905092915050565b600060088302610ecd7fffffffffffffffffffffffffffffffffffffffffffffffffffffffffffffffff82610e90565b610ed78683610e90565b95508019841693508086168417925050509392505050565b6000819050919050565b6000610f14610f0f610f0a84610a6e565b610eef565b610a6e565b9050919050565b6000819050919050565b610f2e83610ef9565b610f42610f3a82610f1b565b848454610e9d565b825550505050565b600090565b610f57610f4a565b610f62818484610f25565b505050565b5b81811015610f8657610f7b600082610f4f565b600181019050610f68565b5050565b601f821115610fcb57610f9c81610e6b565b610fa584610e80565b81016020851015610fb4578190505b610fc8610fc085610e80565b830182610f67565b50505b505050565b600082821c905092915050565b6000610fee60001984600802610fd0565b1980831691505092915050565b60006110078383610fdd565b9150826002028217905092915050565b6110208261091d565b67ffffffffffffffff81111561103957611038610b15565b5b6110438254610e3a565b61104e828285610f8a565b600060209050601f831160018114611081576000841561106f578287015190505b6110798582610ffb565b8655506110e1565b601f19841661108f86610e6b565b60005b828110156110b757848901518255600182019150602085019450602081019050611092565b868310156110d457848901516110d0601f891682610fdd565b8355505b6001600288020188555050505b505050505050565b7f4e487b7100000000000000000000000000000000000000000000000000000000600052601160045260246000fd5b600061112382610a6e565b915061112e83610a6e565b925082820261113c81610a6e565b91508282048414831517611153576111526110e9565b5b5092915050565b7f4e487b7100000000000000000000000000000000000000000000000000000000600052603260045260246000fd5b600081905092915050565b50565b60006111a4600083611189565b91506111af82611194565b600082019050919050565b60006111c582611197565b9150819050919050565b7f4e6f7420656e6f75676e206574686572207761732073656e6400000000000000600082015250565b6000611205601983610928565b9150611210826111cf565b602082019050919050565b60006020820190508181036000830152611234816111f8565b9050919050565b60008190508160005260206000209050919050565b6000815461125d81610e3a565b6112678186611189565b945060018216600081146112825760018114611297576112ca565b60ff19831686528115158202860193506112ca565b6112a08561123b565b60005b838110156112c2578154818901526001820191506020810190506112a3565b838801955050505b50505092915050565b60006112df8284611250565b915081905092915050565b60006112f582610a6e565b91507fffffffffffffffffffffffffffffffffffffffffffffffffffffffffffffffff8203611327576113266110e9565b5b60018201905091905056fea26469706673582212208554504e0a8112c31d1643d070294a32ca543db8c39b46bfc28a975419f1a7cf64736f6c63430008120033",
  "linkReferences": {},
  "deployedLinkReferences": {}
}